{
  "_format": "hh-sol-artifact-1",
  "contractName": "PriceFeed",
  "sourceName": "contracts/HelloWorld.sol",
  "abi": [
    {
      "inputs": [],
      "stateMutability": "nonpayable",
      "type": "constructor"
    },
    {
      "anonymous": false,
      "inputs": [
        {
          "indexed": false,
          "internalType": "uint256",
          "name": "feedid",
          "type": "uint256"
        },
        {
          "indexed": false,
          "internalType": "address",
          "name": "newAddress",
          "type": "address"
        },
        {
          "indexed": false,
          "internalType": "string",
          "name": "description",
          "type": "string"
        }
      ],
      "name": "FeedAddressUpdated",
      "type": "event"
    },
    {
      "anonymous": false,
      "inputs": [
        {
          "indexed": true,
          "internalType": "address",
          "name": "previousOwner",
          "type": "address"
        },
        {
          "indexed": true,
          "internalType": "address",
          "name": "newOwner",
          "type": "address"
        }
      ],
      "name": "OwnershipTransferred",
      "type": "event"
    },
    {
      "anonymous": false,
      "inputs": [
        {
          "indexed": false,
          "internalType": "string",
          "name": "description",
          "type": "string"
        },
        {
          "indexed": false,
          "internalType": "int256",
          "name": "price",
          "type": "int256"
        }
      ],
      "name": "PriceRequested",
      "type": "event"
    },
    {
      "inputs": [
        {
          "internalType": "uint256",
          "name": "",
          "type": "uint256"
        }
      ],
      "name": "feeds",
      "outputs": [
        {
          "internalType": "contract AggregatorV3Interface",
          "name": "aggregator",
          "type": "address"
        },
        {
          "internalType": "string",
          "name": "description",
          "type": "string"
        }
      ],
      "stateMutability": "view",
      "type": "function"
    },
    {
      "inputs": [
        {
          "internalType": "uint256",
          "name": "feedid",
          "type": "uint256"
        }
      ],
      "name": "getLastFetchedPrice",
      "outputs": [
        {
          "internalType": "int256",
          "name": "",
          "type": "int256"
        }
      ],
      "stateMutability": "view",
      "type": "function"
    },
    {
      "inputs": [
        {
          "internalType": "uint256",
          "name": "",
          "type": "uint256"
        }
      ],
      "name": "lastFetchedPrice",
      "outputs": [
        {
          "internalType": "int256",
          "name": "",
          "type": "int256"
        }
      ],
      "stateMutability": "view",
      "type": "function"
    },
    {
      "inputs": [],
      "name": "owner",
      "outputs": [
        {
          "internalType": "address",
          "name": "",
          "type": "address"
        }
      ],
      "stateMutability": "view",
      "type": "function"
    },
    {
      "inputs": [],
      "name": "renounceOwnership",
      "outputs": [],
      "stateMutability": "nonpayable",
      "type": "function"
    },
    {
      "inputs": [
        {
          "internalType": "address",
          "name": "newOwner",
          "type": "address"
        }
      ],
      "name": "transferOwnership",
      "outputs": [],
      "stateMutability": "nonpayable",
      "type": "function"
    },
    {
      "inputs": [
        {
          "internalType": "uint256",
          "name": "feedid",
          "type": "uint256"
        },
        {
          "internalType": "address",
          "name": "newAddress",
          "type": "address"
        }
      ],
      "name": "updateFeedAddress",
      "outputs": [],
      "stateMutability": "nonpayable",
      "type": "function"
    },
    {
      "inputs": [
        {
          "internalType": "uint256",
          "name": "feedid",
          "type": "uint256"
        }
      ],
      "name": "updatePrice",
      "outputs": [],
      "stateMutability": "nonpayable",
      "type": "function"
    }
  ],
  "bytecode": "0x60806040523480156200001157600080fd5b506200003262000026620003fc60201b60201c565b6200040460201b60201c565b60405180604001604052807331cf013a08c6ac228c94551d535d5bafe19c602a73ffffffffffffffffffffffffffffffffffffffff1681526020016040518060400160405280600781526020017f4254432f55534400000000000000000000000000000000000000000000000000815250815250600160006001815260200190815260200160002060008201518160000160006101000a81548173ffffffffffffffffffffffffffffffffffffffff021916908373ffffffffffffffffffffffffffffffffffffffff16021790555060208201518160010190805190602001906200011f929190620004c8565b5090505060405180604001604052807386d67c3d38d2bcee722e601025c25a575021c6ea73ffffffffffffffffffffffffffffffffffffffff1681526020016040518060400160405280600781526020017f4554482f55534400000000000000000000000000000000000000000000000000815250815250600160006002815260200190815260200160002060008201518160000160006101000a81548173ffffffffffffffffffffffffffffffffffffffff021916908373ffffffffffffffffffffffffffffffffffffffff160217905550602082015181600101908051906020019062000210929190620004c8565b5090505060405180604001604052807334c4c526902d88a3aa98db8a9b802603eb1e347073ffffffffffffffffffffffffffffffffffffffff1681526020016040518060400160405280600881526020017f4c494e4b2f555344000000000000000000000000000000000000000000000000815250815250600160006003815260200190815260200160002060008201518160000160006101000a81548173ffffffffffffffffffffffffffffffffffffffff021916908373ffffffffffffffffffffffffffffffffffffffff160217905550602082015181600101908051906020019062000301929190620004c8565b5090505060405180604001604052807372afaecf99c9d9c8215ff44c77b94b99c28741e873ffffffffffffffffffffffffffffffffffffffff1681526020016040518060400160405280600981526020017f31494e43482f5553440000000000000000000000000000000000000000000000815250815250600160006004815260200190815260200160002060008201518160000160006101000a81548173ffffffffffffffffffffffffffffffffffffffff021916908373ffffffffffffffffffffffffffffffffffffffff1602179055506020820151816001019080519060200190620003f2929190620004c8565b50905050620005dd565b600033905090565b60008060009054906101000a900473ffffffffffffffffffffffffffffffffffffffff169050816000806101000a81548173ffffffffffffffffffffffffffffffffffffffff021916908373ffffffffffffffffffffffffffffffffffffffff1602179055508173ffffffffffffffffffffffffffffffffffffffff168173ffffffffffffffffffffffffffffffffffffffff167f8be0079c531659141344cd1fd0a4f28419497f9722a3daafe3b4186f6b6457e060405160405180910390a35050565b828054620004d69062000578565b90600052602060002090601f016020900481019282620004fa576000855562000546565b82601f106200051557805160ff191683800117855562000546565b8280016001018555821562000546579182015b828111156200054557825182559160200191906001019062000528565b5b50905062000555919062000559565b5090565b5b80821115620005745760008160009055506001016200055a565b5090565b600060028204905060018216806200059157607f821691505b60208210811415620005a857620005a7620005ae565b5b50919050565b7f4e487b7100000000000000000000000000000000000000000000000000000000600052602260045260246000fd5b61102280620005ed6000396000f3fe608060405234801561001057600080fd5b50600436106100885760003560e01c80638d6cc56d1161005b5780638d6cc56d146101145780638da5cb5b14610130578063c0351f5c1461014e578063f2fde38b1461017e57610088565b80630b0eebe41461008d5780630e168cf3146100bd5780634a5479f3146100d9578063715018a61461010a575b600080fd5b6100a760048036038101906100a291906108b0565b61019a565b6040516100b49190610baa565b60405180910390f35b6100d760048036038101906100d291906108dd565b61020d565b005b6100f360048036038101906100ee91906108b0565b61037d565b604051610101929190610b7a565b60405180910390f35b610112610449565b005b61012e600480360381019061012991906108b0565b61045d565b005b61013861060b565b6040516101459190610b5f565b60405180910390f35b610168600480360381019061016391906108b0565b610634565b6040516101759190610baa565b60405180910390f35b61019860048036038101906101939190610883565b61064c565b005b600080600260008481526020019081526020016000205414156101f2576040517f08c379a00000000000000000000000000000000000000000000000000000000081526004016101e990610c55565b60405180910390fd5b60026000838152602001908152602001600020549050919050565b6102156106d0565b600073ffffffffffffffffffffffffffffffffffffffff168173ffffffffffffffffffffffffffffffffffffffff161415610285576040517f08c379a000000000000000000000000000000000000000000000000000000000815260040161027c90610c35565b60405180910390fd5b6000821180156102955750600582105b6102d4576040517f08c379a00000000000000000000000000000000000000000000000000000000081526004016102cb90610c75565b60405180910390fd5b806001600084815260200190815260200160002060000160006101000a81548173ffffffffffffffffffffffffffffffffffffffff021916908373ffffffffffffffffffffffffffffffffffffffff1602179055507f776d4e4061bc9d2460fc798429abcb89b43f7c5d6c2b36b34951e38af127bbc282826001600086815260200190815260200160002060010160405161037193929190610cb5565b60405180910390a15050565b60016020528060005260406000206000915090508060000160009054906101000a900473ffffffffffffffffffffffffffffffffffffffff16908060010180546103c690610dd7565b80601f01602080910402602001604051908101604052809291908181526020018280546103f290610dd7565b801561043f5780601f106104145761010080835404028352916020019161043f565b820191906000526020600020905b81548152906001019060200180831161042257829003601f168201915b5050505050905082565b6104516106d0565b61045b600061074e565b565b6000600160008381526020019081526020016000209050600073ffffffffffffffffffffffffffffffffffffffff168160000160009054906101000a900473ffffffffffffffffffffffffffffffffffffffff1673ffffffffffffffffffffffffffffffffffffffff161415610508576040517f08c379a00000000000000000000000000000000000000000000000000000000081526004016104ff90610c15565b60405180910390fd5b60008160000160009054906101000a900473ffffffffffffffffffffffffffffffffffffffff1673ffffffffffffffffffffffffffffffffffffffff1663feaf968c6040518163ffffffff1660e01b815260040160a06040518083038186803b15801561057457600080fd5b505afa158015610588573d6000803e3d6000fd5b505050506040513d601f19601f820116820180604052508101906105ac919061091d565b5050509150508060026000858152602001908152602001600020819055507f258bec2dd17c2c58a631f67d75e4a7703ba5c551ba9428e15fd9b7814972a7a982600101826040516105fe929190610bc5565b60405180910390a1505050565b60008060009054906101000a900473ffffffffffffffffffffffffffffffffffffffff16905090565b60026020528060005260406000206000915090505481565b6106546106d0565b600073ffffffffffffffffffffffffffffffffffffffff168173ffffffffffffffffffffffffffffffffffffffff1614156106c4576040517f08c379a00000000000000000000000000000000000000000000000000000000081526004016106bb90610bf5565b60405180910390fd5b6106cd8161074e565b50565b6106d8610812565b73ffffffffffffffffffffffffffffffffffffffff166106f661060b565b73ffffffffffffffffffffffffffffffffffffffff161461074c576040517f08c379a000000000000000000000000000000000000000000000000000000000815260040161074390610c95565b60405180910390fd5b565b60008060009054906101000a900473ffffffffffffffffffffffffffffffffffffffff169050816000806101000a81548173ffffffffffffffffffffffffffffffffffffffff021916908373ffffffffffffffffffffffffffffffffffffffff1602179055508173ffffffffffffffffffffffffffffffffffffffff168173ffffffffffffffffffffffffffffffffffffffff167f8be0079c531659141344cd1fd0a4f28419497f9722a3daafe3b4186f6b6457e060405160405180910390a35050565b600033905090565b60008135905061082981610f90565b92915050565b60008151905061083e81610fa7565b92915050565b60008135905061085381610fbe565b92915050565b60008151905061086881610fbe565b92915050565b60008151905061087d81610fd5565b92915050565b60006020828403121561089957610898610e38565b5b60006108a78482850161081a565b91505092915050565b6000602082840312156108c6576108c5610e38565b5b60006108d484828501610844565b91505092915050565b600080604083850312156108f4576108f3610e38565b5b600061090285828601610844565b92505060206109138582860161081a565b9150509250929050565b600080600080600060a0868803121561093957610938610e38565b5b60006109478882890161086e565b95505060206109588882890161082f565b945050604061096988828901610859565b935050606061097a88828901610859565b925050608061098b8882890161086e565b9150509295509295909350565b6109a181610d24565b82525050565b6109b081610d80565b82525050565b6109bf81610d36565b82525050565b60006109d082610d08565b6109da8185610d13565b93506109ea818560208601610da4565b6109f381610e3d565b840191505092915050565b60008154610a0b81610dd7565b610a158186610d13565b94506001821660008114610a305760018114610a4257610a75565b60ff1983168652602086019350610a75565b610a4b85610cf3565b60005b83811015610a6d57815481890152600182019150602081019050610a4e565b808801955050505b50505092915050565b6000610a8b602683610d13565b9150610a9682610e4e565b604082019050919050565b6000610aae601b83610d13565b9150610ab982610e9d565b602082019050919050565b6000610ad1601d83610d13565b9150610adc82610ec6565b602082019050919050565b6000610af4602f83610d13565b9150610aff82610eef565b604082019050919050565b6000610b17601083610d13565b9150610b2282610f3e565b602082019050919050565b6000610b3a602083610d13565b9150610b4582610f67565b602082019050919050565b610b5981610d60565b82525050565b6000602082019050610b746000830184610998565b92915050565b6000604082019050610b8f60008301856109a7565b8181036020830152610ba181846109c5565b90509392505050565b6000602082019050610bbf60008301846109b6565b92915050565b60006040820190508181036000830152610bdf81856109fe565b9050610bee60208301846109b6565b9392505050565b60006020820190508181036000830152610c0e81610a7e565b9050919050565b60006020820190508181036000830152610c2e81610aa1565b9050919050565b60006020820190508181036000830152610c4e81610ac4565b9050919050565b60006020820190508181036000830152610c6e81610ae7565b9050919050565b60006020820190508181036000830152610c8e81610b0a565b9050919050565b60006020820190508181036000830152610cae81610b2d565b9050919050565b6000606082019050610cca6000830186610b50565b610cd76020830185610998565b8181036040830152610ce981846109fe565b9050949350505050565b60008190508160005260206000209050919050565b600081519050919050565b600082825260208201905092915050565b6000610d2f82610d40565b9050919050565b6000819050919050565b600073ffffffffffffffffffffffffffffffffffffffff82169050919050565b6000819050919050565b600069ffffffffffffffffffff82169050919050565b6000610d8b82610d92565b9050919050565b6000610d9d82610d40565b9050919050565b60005b83811015610dc2578082015181840152602081019050610da7565b83811115610dd1576000848401525b50505050565b60006002820490506001821680610def57607f821691505b60208210811415610e0357610e02610e09565b5b50919050565b7f4e487b7100000000000000000000000000000000000000000000000000000000600052602260045260246000fd5b600080fd5b6000601f19601f8301169050919050565b7f4f776e61626c653a206e6577206f776e657220697320746865207a65726f206160008201527f6464726573730000000000000000000000000000000000000000000000000000602082015250565b7f436f6e74726163742061646472657373206e6f7420666f756e642e0000000000600082015250565b7f55706461746564206164647265737320697320756e646566696e65642e000000600082015250565b7f4c617465737420707269636520636f6e76657273696f6e20686173206e6f742060008201527f6265656e207265747269657665642e0000000000000000000000000000000000602082015250565b7f696e76616c696420666565642049442e00000000000000000000000000000000600082015250565b7f4f776e61626c653a2063616c6c6572206973206e6f7420746865206f776e6572600082015250565b610f9981610d24565b8114610fa457600080fd5b50565b610fb081610d36565b8114610fbb57600080fd5b50565b610fc781610d60565b8114610fd257600080fd5b50565b610fde81610d6a565b8114610fe957600080fd5b5056fea2646970667358221220370162f60bafa0154af4ab7fe30120812cfa6ad10a6504848e7190c45115344e64736f6c63430008060033",
  "linkReferences": {},
  "deployedLinkReferences": {}
}